{
  "_format": "hh3-artifact-1",
  "contractName": "Project",
  "sourceName": "contracts/Project.sol",
  "abi": [
    {
      "inputs": [],
      "stateMutability": "nonpayable",
      "type": "constructor"
    },
    {
      "inputs": [],
      "name": "EnforcedPause",
      "type": "error"
    },
    {
      "inputs": [],
      "name": "ExpectedPause",
      "type": "error"
    },
    {
      "inputs": [],
      "name": "InvalidInitialization",
      "type": "error"
    },
    {
      "inputs": [],
      "name": "NotInitializing",
      "type": "error"
    },
    {
      "inputs": [
        {
          "internalType": "address",
          "name": "owner",
          "type": "address"
        }
      ],
      "name": "OwnableInvalidOwner",
      "type": "error"
    },
    {
      "inputs": [
        {
          "internalType": "address",
          "name": "account",
          "type": "address"
        }
      ],
      "name": "OwnableUnauthorizedAccount",
      "type": "error"
    },
    {
      "inputs": [],
      "name": "ReentrancyGuardReentrantCall",
      "type": "error"
    },
    {
      "anonymous": false,
      "inputs": [
        {
          "indexed": false,
          "internalType": "bool",
          "name": "enabled",
          "type": "bool"
        }
      ],
      "name": "DeadlineToggled",
      "type": "event"
    },
    {
      "anonymous": false,
      "inputs": [
        {
          "indexed": true,
          "internalType": "address",
          "name": "donor",
          "type": "address"
        },
        {
          "indexed": false,
          "internalType": "uint256",
          "name": "amount",
          "type": "uint256"
        }
      ],
      "name": "Donated",
      "type": "event"
    },
    {
      "anonymous": false,
      "inputs": [
        {
          "indexed": true,
          "internalType": "address",
          "name": "byPlatform",
          "type": "address"
        }
      ],
      "name": "EmergencyPaused",
      "type": "event"
    },
    {
      "anonymous": false,
      "inputs": [
        {
          "indexed": false,
          "internalType": "uint64",
          "name": "version",
          "type": "uint64"
        }
      ],
      "name": "Initialized",
      "type": "event"
    },
    {
      "anonymous": false,
      "inputs": [
        {
          "indexed": true,
          "internalType": "uint256",
          "name": "index",
          "type": "uint256"
        },
        {
          "indexed": false,
          "internalType": "uint256",
          "name": "amount",
          "type": "uint256"
        }
      ],
      "name": "MilestoneReleased",
      "type": "event"
    },
    {
      "anonymous": false,
      "inputs": [
        {
          "indexed": true,
          "internalType": "address",
          "name": "previousOwner",
          "type": "address"
        },
        {
          "indexed": true,
          "internalType": "address",
          "name": "newOwner",
          "type": "address"
        }
      ],
      "name": "OwnershipTransferred",
      "type": "event"
    },
    {
      "anonymous": false,
      "inputs": [
        {
          "indexed": false,
          "internalType": "address",
          "name": "account",
          "type": "address"
        }
      ],
      "name": "Paused",
      "type": "event"
    },
    {
      "anonymous": false,
      "inputs": [],
      "name": "ProjectCompleted",
      "type": "event"
    },
    {
      "anonymous": false,
      "inputs": [],
      "name": "ProjectFailed",
      "type": "event"
    },
    {
      "anonymous": false,
      "inputs": [
        {
          "indexed": false,
          "internalType": "address",
          "name": "account",
          "type": "address"
        }
      ],
      "name": "Unpaused",
      "type": "event"
    },
    {
      "inputs": [],
      "name": "builder",
      "outputs": [
        {
          "internalType": "address payable",
          "name": "",
          "type": "address"
        }
      ],
      "stateMutability": "view",
      "type": "function"
    },
    {
      "inputs": [],
      "name": "charity",
      "outputs": [
        {
          "internalType": "address",
          "name": "",
          "type": "address"
        }
      ],
      "stateMutability": "view",
      "type": "function"
    },
    {
      "inputs": [],
      "name": "claimRefund",
      "outputs": [],
      "stateMutability": "nonpayable",
      "type": "function"
    },
    {
      "inputs": [],
      "name": "completed",
      "outputs": [
        {
          "internalType": "bool",
          "name": "",
          "type": "bool"
        }
      ],
      "stateMutability": "view",
      "type": "function"
    },
    {
      "inputs": [],
      "name": "deadline",
      "outputs": [
        {
          "internalType": "uint256",
          "name": "",
          "type": "uint256"
        }
      ],
      "stateMutability": "view",
      "type": "function"
    },
    {
      "inputs": [],
      "name": "deadlineEnabled",
      "outputs": [
        {
          "internalType": "bool",
          "name": "",
          "type": "bool"
        }
      ],
      "stateMutability": "view",
      "type": "function"
    },
    {
      "inputs": [],
      "name": "donate",
      "outputs": [],
      "stateMutability": "payable",
      "type": "function"
    },
    {
      "inputs": [
        {
          "internalType": "address",
          "name": "",
          "type": "address"
        }
      ],
      "name": "donations",
      "outputs": [
        {
          "internalType": "uint256",
          "name": "",
          "type": "uint256"
        }
      ],
      "stateMutability": "view",
      "type": "function"
    },
    {
      "inputs": [],
      "name": "emergencyPause",
      "outputs": [],
      "stateMutability": "nonpayable",
      "type": "function"
    },
    {
      "inputs": [
        {
          "internalType": "uint256",
          "name": "index",
          "type": "uint256"
        }
      ],
      "name": "getMilestone",
      "outputs": [
        {
          "internalType": "uint256",
          "name": "amount",
          "type": "uint256"
        },
        {
          "internalType": "bool",
          "name": "released",
          "type": "bool"
        }
      ],
      "stateMutability": "view",
      "type": "function"
    },
    {
      "inputs": [],
      "name": "getProjectInfo",
      "outputs": [
        {
          "internalType": "address",
          "name": "_platform",
          "type": "address"
        },
        {
          "internalType": "address",
          "name": "_charity",
          "type": "address"
        },
        {
          "internalType": "address",
          "name": "_builder",
          "type": "address"
        },
        {
          "internalType": "uint256",
          "name": "_goal",
          "type": "uint256"
        },
        {
          "internalType": "uint256",
          "name": "_deadline",
          "type": "uint256"
        },
        {
          "internalType": "bool",
          "name": "_completed",
          "type": "bool"
        },
        {
          "internalType": "bool",
          "name": "_deadlineEnabled",
          "type": "bool"
        }
      ],
      "stateMutability": "view",
      "type": "function"
    },
    {
      "inputs": [],
      "name": "goal",
      "outputs": [
        {
          "internalType": "uint256",
          "name": "",
          "type": "uint256"
        }
      ],
      "stateMutability": "view",
      "type": "function"
    },
    {
      "inputs": [
        {
          "internalType": "address",
          "name": "_platform",
          "type": "address"
        },
        {
          "internalType": "address",
          "name": "_charity",
          "type": "address"
        },
        {
          "internalType": "address payable",
          "name": "_builder",
          "type": "address"
        },
        {
          "internalType": "uint256",
          "name": "_goal",
          "type": "uint256"
        },
        {
          "internalType": "uint256",
          "name": "_deadline",
          "type": "uint256"
        },
        {
          "internalType": "string",
          "name": "_metaCid",
          "type": "string"
        },
        {
          "internalType": "uint256[]",
          "name": "_milestoneAmounts",
          "type": "uint256[]"
        },
        {
          "internalType": "bool",
          "name": "_deadlineEnabled",
          "type": "bool"
        }
      ],
      "name": "initialize",
      "outputs": [],
      "stateMutability": "nonpayable",
      "type": "function"
    },
    {
      "inputs": [],
      "name": "metaCid",
      "outputs": [
        {
          "internalType": "string",
          "name": "",
          "type": "string"
        }
      ],
      "stateMutability": "view",
      "type": "function"
    },
    {
      "inputs": [],
      "name": "milestoneCount",
      "outputs": [
        {
          "internalType": "uint256",
          "name": "",
          "type": "uint256"
        }
      ],
      "stateMutability": "view",
      "type": "function"
    },
    {
      "inputs": [
        {
          "internalType": "uint256",
          "name": "",
          "type": "uint256"
        }
      ],
      "name": "milestones",
      "outputs": [
        {
          "internalType": "uint128",
          "name": "amount",
          "type": "uint128"
        },
        {
          "internalType": "bool",
          "name": "released",
          "type": "bool"
        }
      ],
      "stateMutability": "view",
      "type": "function"
    },
    {
      "inputs": [],
      "name": "owner",
      "outputs": [
        {
          "internalType": "address",
          "name": "",
          "type": "address"
        }
      ],
      "stateMutability": "view",
      "type": "function"
    },
    {
      "inputs": [],
      "name": "pause",
      "outputs": [],
      "stateMutability": "nonpayable",
      "type": "function"
    },
    {
      "inputs": [],
      "name": "paused",
      "outputs": [
        {
          "internalType": "bool",
          "name": "",
          "type": "bool"
        }
      ],
      "stateMutability": "view",
      "type": "function"
    },
    {
      "inputs": [],
      "name": "platform",
      "outputs": [
        {
          "internalType": "address",
          "name": "",
          "type": "address"
        }
      ],
      "stateMutability": "view",
      "type": "function"
    },
    {
      "inputs": [
        {
          "internalType": "uint256",
          "name": "index",
          "type": "uint256"
        }
      ],
      "name": "releaseMilestone",
      "outputs": [],
      "stateMutability": "nonpayable",
      "type": "function"
    },
    {
      "inputs": [],
      "name": "renounceOwnership",
      "outputs": [],
      "stateMutability": "nonpayable",
      "type": "function"
    },
    {
      "inputs": [
        {
          "internalType": "bool",
          "name": "_enabled",
          "type": "bool"
        }
      ],
      "name": "toggleDeadline",
      "outputs": [],
      "stateMutability": "nonpayable",
      "type": "function"
    },
    {
      "inputs": [],
      "name": "totalDonated",
      "outputs": [
        {
          "internalType": "uint256",
          "name": "",
          "type": "uint256"
        }
      ],
      "stateMutability": "view",
      "type": "function"
    },
    {
      "inputs": [
        {
          "internalType": "address",
          "name": "newOwner",
          "type": "address"
        }
      ],
      "name": "transferOwnership",
      "outputs": [],
      "stateMutability": "nonpayable",
      "type": "function"
    },
    {
      "inputs": [],
      "name": "unpause",
      "outputs": [],
      "stateMutability": "nonpayable",
      "type": "function"
    }
  ],
  "bytecode": "0x608060405234801561000f575f5ffd5b5061001e61002360201b60201c565b61019e565b5f61003261012160201b60201c565b9050805f0160089054906101000a900460ff161561007c576040517ff92ee8a900000000000000000000000000000000000000000000000000000000815260040160405180910390fd5b67ffffffffffffffff8016815f015f9054906101000a900467ffffffffffffffff1667ffffffffffffffff161461011e5767ffffffffffffffff815f015f6101000a81548167ffffffffffffffff021916908367ffffffffffffffff1602179055507fc7f505b2f371ae2175ee4913f4499e1f2633a7b5936321eed1cdaeb6115181d267ffffffffffffffff6040516101159190610185565b60405180910390a15b50565b5f5f61013161013a60201b60201c565b90508091505090565b5f7ff0c57e16840df040f15088dc2f81fe391c3923bec73e23a9662efc9c229c6a005f1b905090565b5f67ffffffffffffffff82169050919050565b61017f81610163565b82525050565b5f6020820190506101985f830184610176565b92915050565b6135c5806101ab5f395ff3fe60806040526004361061017f575f3560e01c80638456cb59116100d0578063b5545a3c11610089578063e89e4ed611610063578063e89e4ed6146104e0578063ed88c68e1461051d578063f2fde38b14610527578063fe1066b11461054f5761017f565b8063b5545a3c14610464578063cc6cb19a1461047a578063d7e84fbf146104b65761017f565b80638456cb591461037e5780638da5cb5b14610394578063934aa023146103be5780639d9a7fe9146103e8578063accb16e014610412578063b33c09051461043c5761017f565b8063401938831161013d5780635c975abb116101175780635c975abb146102e657806367c897fe14610310578063715018a6146103405780637dd72449146103565761017f565b8063401938831461027c5780634bde38c8146102a657806351858e27146102d05761017f565b8062b37044146101835780630681ca55146101ad5780632442e1cb146101d757806329dcb0cf14610214578063317debf51461023e5780633f4ba83a14610266575b5f5ffd5b34801561018e575f5ffd5b50610197610579565b6040516101a491906120ba565b60405180910390f35b3480156101b8575f5ffd5b506101c161057f565b6040516101ce91906120ba565b60405180910390f35b3480156101e2575f5ffd5b506101fd60048036038101906101f8919061210e565b61058b565b60405161020b929190612153565b60405180910390f35b34801561021f575f5ffd5b50610228610642565b60405161023591906120ba565b60405180910390f35b348015610249575f5ffd5b50610264600480360381019061025f919061210e565b610648565b005b348015610271575f5ffd5b5061027a610a23565b005b348015610287575f5ffd5b50610290610abb565b60405161029d91906120ba565b60405180910390f35b3480156102b1575f5ffd5b506102ba610ac1565b6040516102c791906121b9565b60405180910390f35b3480156102db575f5ffd5b506102e4610ae6565b005b3480156102f1575f5ffd5b506102fa610bc2565b60405161030791906121d2565b60405180910390f35b34801561031b575f5ffd5b50610324610be4565b60405161033797969594939291906121eb565b60405180910390f35b34801561034b575f5ffd5b50610354610c8c565b005b348015610361575f5ffd5b5061037c60048036038101906103779190612282565b610c9f565b005b348015610389575f5ffd5b50610392610d81565b005b34801561039f575f5ffd5b506103a8610e19565b6040516103b591906121b9565b60405180910390f35b3480156103c9575f5ffd5b506103d2610e4e565b6040516103df91906121b9565b60405180910390f35b3480156103f3575f5ffd5b506103fc610e72565b60405161040991906121d2565b60405180910390f35b34801561041d575f5ffd5b50610426610e84565b60405161043391906121d2565b60405180910390f35b348015610447575f5ffd5b50610462600480360381019061045d9190612512565b610e97565b005b34801561046f575f5ffd5b506104786114e0565b005b348015610485575f5ffd5b506104a0600480360381019061049b91906125fb565b611789565b6040516104ad91906120ba565b60405180910390f35b3480156104c1575f5ffd5b506104ca61179e565b6040516104d79190612635565b60405180910390f35b3480156104eb575f5ffd5b506105066004803603810190610501919061210e565b6117c3565b604051610514929190612678565b60405180910390f35b610525611815565b005b348015610532575f5ffd5b5061054d600480360381019061054891906125fb565b611a26565b005b34801561055a575f5ffd5b50610563611aaa565b60405161057091906126ff565b60405180910390f35b60085481565b5f600780549050905090565b5f5f60078054905083106105d4576040517f08c379a00000000000000000000000000000000000000000000000000000000081526004016105cb90612769565b60405180910390fd5b5f600784815481106105e9576105e8612787565b5b905f5260205f20019050805f015f9054906101000a90046fffffffffffffffffffffffffffffffff16815f0160109054906101000a900460ff16816fffffffffffffffffffffffffffffffff1691509250925050915091565b60045481565b5f5f9054906101000a900473ffffffffffffffffffffffffffffffffffffffff1673ffffffffffffffffffffffffffffffffffffffff163373ffffffffffffffffffffffffffffffffffffffff16146106d6576040517f08c379a00000000000000000000000000000000000000000000000000000000081526004016106cd906127fe565b60405180910390fd5b6106de611b36565b60065f9054906101000a900460ff161561072d576040517f08c379a000000000000000000000000000000000000000000000000000000000815260040161072490612866565b60405180910390fd5b6007805490508110610774576040517f08c379a000000000000000000000000000000000000000000000000000000000815260040161076b90612769565b60405180910390fd5b5f6007828154811061078957610788612787565b5b905f5260205f20019050805f0160109054906101000a900460ff16156107e4576040517f08c379a00000000000000000000000000000000000000000000000000000000081526004016107db906128ce565b60405180910390fd5b805f015f9054906101000a90046fffffffffffffffffffffffffffffffff166fffffffffffffffffffffffffffffffff16471015610857576040517f08c379a000000000000000000000000000000000000000000000000000000000815260040161084e90612936565b60405180910390fd5b6001815f0160106101000a81548160ff0219169083151502179055505f60015f9054906101000a900473ffffffffffffffffffffffffffffffffffffffff1673ffffffffffffffffffffffffffffffffffffffff16825f015f9054906101000a90046fffffffffffffffffffffffffffffffff166fffffffffffffffffffffffffffffffff166040516108e990612981565b5f6040518083038185875af1925050503d805f8114610923576040519150601f19603f3d011682016040523d82523d5f602084013e610928565b606091505b505090508061096c576040517f08c379a0000000000000000000000000000000000000000000000000000000008152600401610963906129df565b60405180910390fd5b827f9e069181c12760c2cd0078ed4facdbe1f3614543b0fbff5dbcac3cbc61a0b64e835f015f9054906101000a90046fffffffffffffffffffffffffffffffff166040516109ba9190612a36565b60405180910390a26109ca611b8a565b15610a1657600160065f6101000a81548160ff0219169083151502179055507fe39866727217e43713c3728c5769515e8fb38e990b568b9831c1689dfdf67b6660405160405180910390a15b5050610a20611bec565b50565b5f5f9054906101000a900473ffffffffffffffffffffffffffffffffffffffff1673ffffffffffffffffffffffffffffffffffffffff163373ffffffffffffffffffffffffffffffffffffffff1614610ab1576040517f08c379a0000000000000000000000000000000000000000000000000000000008152600401610aa8906127fe565b60405180910390fd5b610ab9611c03565b565b60035481565b60025f9054906101000a900473ffffffffffffffffffffffffffffffffffffffff1681565b60025f9054906101000a900473ffffffffffffffffffffffffffffffffffffffff1673ffffffffffffffffffffffffffffffffffffffff163373ffffffffffffffffffffffffffffffffffffffff1614610b75576040517f08c379a0000000000000000000000000000000000000000000000000000000008152600401610b6c90612a99565b60405180910390fd5b610b7d611c71565b3373ffffffffffffffffffffffffffffffffffffffff167fb8fad2fa0ed7a383e747c309ef2c4391d7b65592a48893e57ccc1fab7079145660405160405180910390a2565b5f5f610bcc611ce0565b9050805f015f9054906101000a900460ff1691505090565b5f5f5f5f5f5f5f60025f9054906101000a900473ffffffffffffffffffffffffffffffffffffffff165f5f9054906101000a900473ffffffffffffffffffffffffffffffffffffffff1660015f9054906101000a900473ffffffffffffffffffffffffffffffffffffffff1660035460045460065f9054906101000a900460ff16600660019054906101000a900460ff16965096509650965096509650965090919293949596565b610c94611d07565b610c9d5f611d8e565b565b5f5f9054906101000a900473ffffffffffffffffffffffffffffffffffffffff1673ffffffffffffffffffffffffffffffffffffffff163373ffffffffffffffffffffffffffffffffffffffff1614610d2d576040517f08c379a0000000000000000000000000000000000000000000000000000000008152600401610d24906127fe565b60405180910390fd5b80600660016101000a81548160ff0219169083151502179055507f1258ede8dc7152bee8ecd5c46162ad1bf063166916d9e896f4d1421088906ee481604051610d7691906121d2565b60405180910390a150565b5f5f9054906101000a900473ffffffffffffffffffffffffffffffffffffffff1673ffffffffffffffffffffffffffffffffffffffff163373ffffffffffffffffffffffffffffffffffffffff1614610e0f576040517f08c379a0000000000000000000000000000000000000000000000000000000008152600401610e06906127fe565b60405180910390fd5b610e17611c71565b565b5f5f610e23611e5f565b9050805f015f9054906101000a900473ffffffffffffffffffffffffffffffffffffffff1691505090565b5f5f9054906101000a900473ffffffffffffffffffffffffffffffffffffffff1681565b60065f9054906101000a900460ff1681565b600660019054906101000a900460ff1681565b5f610ea0611e86565b90505f815f0160089054906101000a900460ff161590505f825f015f9054906101000a900467ffffffffffffffff1690505f5f8267ffffffffffffffff16148015610ee85750825b90505f60018367ffffffffffffffff16148015610f1b57505f3073ffffffffffffffffffffffffffffffffffffffff163b145b905081158015610f29575080155b15610f60576040517ff92ee8a900000000000000000000000000000000000000000000000000000000815260040160405180910390fd5b6001855f015f6101000a81548167ffffffffffffffff021916908367ffffffffffffffff1602179055508315610fad576001855f0160086101000a81548160ff0219169083151502179055505b5f73ffffffffffffffffffffffffffffffffffffffff168d73ffffffffffffffffffffffffffffffffffffffff160361101b576040517f08c379a000000000000000000000000000000000000000000000000000000000815260040161101290612b01565b60405180910390fd5b5f73ffffffffffffffffffffffffffffffffffffffff168c73ffffffffffffffffffffffffffffffffffffffff1603611089576040517f08c379a000000000000000000000000000000000000000000000000000000000815260040161108090612b69565b60405180910390fd5b5f73ffffffffffffffffffffffffffffffffffffffff168b73ffffffffffffffffffffffffffffffffffffffff16036110f7576040517f08c379a00000000000000000000000000000000000000000000000000000000081526004016110ee90612bd1565b60405180910390fd5b428911611139576040517f08c379a000000000000000000000000000000000000000000000000000000000815260040161113090612c39565b60405180910390fd5b5f8a1161117b576040517f08c379a000000000000000000000000000000000000000000000000000000000815260040161117290612ca1565b60405180910390fd5b5f8751116111be576040517f08c379a00000000000000000000000000000000000000000000000000000000081526004016111b590612d09565b60405180910390fd5b6111c78d611e99565b6111cf611ead565b6111d7611ebf565b8c60025f6101000a81548173ffffffffffffffffffffffffffffffffffffffff021916908373ffffffffffffffffffffffffffffffffffffffff1602179055508b5f5f6101000a81548173ffffffffffffffffffffffffffffffffffffffff021916908373ffffffffffffffffffffffffffffffffffffffff1602179055508a60015f6101000a81548173ffffffffffffffffffffffffffffffffffffffff021916908373ffffffffffffffffffffffffffffffffffffffff160217905550896003819055508860048190555087600590816112b39190612f1b565b5085600660016101000a81548160ff0219169083151502179055505f5f5f90505b8851811015611432575f8982815181106112f1576112f0612787565b5b602002602001015111611339576040517f08c379a000000000000000000000000000000000000000000000000000000000815260040161133090613034565b60405180910390fd5b88818151811061134c5761134b612787565b5b60200260200101518261135f919061307f565b9150600760405180604001604052808b848151811061138157611380612787565b5b60200260200101516fffffffffffffffffffffffffffffffff1681526020015f1515815250908060018154018082558091505060019003905f5260205f20015f909190919091505f820151815f015f6101000a8154816fffffffffffffffffffffffffffffffff02191690836fffffffffffffffffffffffffffffffff1602179055506020820151815f0160106101000a81548160ff021916908315150217905550505080806001019150506112d4565b508a811115611476576040517f08c379a000000000000000000000000000000000000000000000000000000000815260040161146d906130fc565b60405180910390fd5b5083156114d1575f855f0160086101000a81548160ff0219169083151502179055507fc7f505b2f371ae2175ee4913f4499e1f2633a7b5936321eed1cdaeb6115181d260016040516114c89190613166565b60405180910390a15b50505050505050505050505050565b6114e8611b36565b600660019054906101000a900460ff16611537576040517f08c379a000000000000000000000000000000000000000000000000000000000815260040161152e906131c9565b60405180910390fd5b600454421161157b576040517f08c379a000000000000000000000000000000000000000000000000000000000815260040161157290613231565b60405180910390fd5b60065f9054906101000a900460ff16156115ca576040517f08c379a00000000000000000000000000000000000000000000000000000000081526004016115c190613299565b60405180910390fd5b60035460085410611610576040517f08c379a000000000000000000000000000000000000000000000000000000000815260040161160790613301565b60405180910390fd5b5f60095f3373ffffffffffffffffffffffffffffffffffffffff1673ffffffffffffffffffffffffffffffffffffffff1681526020019081526020015f205490505f8111611693576040517f08c379a000000000000000000000000000000000000000000000000000000000815260040161168a90613369565b60405180910390fd5b5f60095f3373ffffffffffffffffffffffffffffffffffffffff1673ffffffffffffffffffffffffffffffffffffffff1681526020019081526020015f20819055505f3373ffffffffffffffffffffffffffffffffffffffff16826040516116fa90612981565b5f6040518083038185875af1925050503d805f8114611734576040519150601f19603f3d011682016040523d82523d5f602084013e611739565b606091505b505090508061177d576040517f08c379a0000000000000000000000000000000000000000000000000000000008152600401611774906133d1565b60405180910390fd5b5050611787611bec565b565b6009602052805f5260405f205f915090505481565b60015f9054906101000a900473ffffffffffffffffffffffffffffffffffffffff1681565b600781815481106117d2575f80fd5b905f5260205f20015f91509050805f015f9054906101000a90046fffffffffffffffffffffffffffffffff1690805f0160109054906101000a900460ff16905082565b61181d611ec9565b611825611b36565b600660019054906101000a900460ff16156118805760045442111561187f576040517f08c379a000000000000000000000000000000000000000000000000000000000815260040161187690613439565b60405180910390fd5b5b60065f9054906101000a900460ff16156118cf576040517f08c379a00000000000000000000000000000000000000000000000000000000081526004016118c6906134a1565b60405180910390fd5b5f3411611911576040517f08c379a000000000000000000000000000000000000000000000000000000000815260040161190890613509565b60405180910390fd5b60035434600854611922919061307f565b1115611963576040517f08c379a000000000000000000000000000000000000000000000000000000000815260040161195a90613571565b60405180910390fd5b3460095f3373ffffffffffffffffffffffffffffffffffffffff1673ffffffffffffffffffffffffffffffffffffffff1681526020019081526020015f205f8282546119af919061307f565b925050819055503460085f8282546119c7919061307f565b925050819055503373ffffffffffffffffffffffffffffffffffffffff167f2a01595cddf097c90216094025db714da3f4e5bd8877b56ba86a24ecead8e54334604051611a1491906120ba565b60405180910390a2611a24611bec565b565b611a2e611d07565b5f73ffffffffffffffffffffffffffffffffffffffff168173ffffffffffffffffffffffffffffffffffffffff1603611a9e575f6040517f1e4fbdf7000000000000000000000000000000000000000000000000000000008152600401611a9591906121b9565b60405180910390fd5b611aa781611d8e565b50565b60058054611ab790612d54565b80601f0160208091040260200160405190810160405280929190818152602001828054611ae390612d54565b8015611b2e5780601f10611b0557610100808354040283529160200191611b2e565b820191905f5260205f20905b815481529060010190602001808311611b1157829003601f168201915b505050505081565b5f611b3f611f0a565b90506002815f015403611b7e576040517f3ee5aeb500000000000000000000000000000000000000000000000000000000815260040160405180910390fd5b6002815f018190555050565b5f5f5f90505b600780549050811015611be35760078181548110611bb157611bb0612787565b5b905f5260205f20015f0160109054906101000a900460ff16611bd6575f915050611be9565b8080600101915050611b90565b50600190505b90565b5f611bf5611f0a565b90506001815f018190555050565b611c0b611f31565b5f611c14611ce0565b90505f815f015f6101000a81548160ff0219169083151502179055507f5db9ee0a495bf2e6ff9c91a7834c1ba4fdd244a5e8aa4e537bd38aeae4b073aa611c59611f71565b604051611c6691906121b9565b60405180910390a150565b611c79611ec9565b5f611c82611ce0565b90506001815f015f6101000a81548160ff0219169083151502179055507f62e78cea01bee320cd4e420270b5ea74000d11b0c9f74754ebdbfc544b05a258611cc8611f71565b604051611cd591906121b9565b60405180910390a150565b5f7fcd5ed15c6e187e77e9aee88184c21f4f2182ab5827cb3b7e07fbedcd63f03300905090565b611d0f611f71565b73ffffffffffffffffffffffffffffffffffffffff16611d2d610e19565b73ffffffffffffffffffffffffffffffffffffffff1614611d8c57611d50611f71565b6040517f118cdaa7000000000000000000000000000000000000000000000000000000008152600401611d8391906121b9565b60405180910390fd5b565b5f611d97611e5f565b90505f815f015f9054906101000a900473ffffffffffffffffffffffffffffffffffffffff16905082825f015f6101000a81548173ffffffffffffffffffffffffffffffffffffffff021916908373ffffffffffffffffffffffffffffffffffffffff1602179055508273ffffffffffffffffffffffffffffffffffffffff168173ffffffffffffffffffffffffffffffffffffffff167f8be0079c531659141344cd1fd0a4f28419497f9722a3daafe3b4186f6b6457e060405160405180910390a3505050565b5f7f9016d09d72d40fdae2fd8ceac6b6234c7706214fd39c1cd1e609a0528c199300905090565b5f5f611e90611f78565b90508091505090565b611ea1611fa1565b611eaa81611fe1565b50565b611eb5611fa1565b611ebd612065565b565b611ec7611fa1565b565b611ed1610bc2565b15611f08576040517fd93c066500000000000000000000000000000000000000000000000000000000815260040160405180910390fd5b565b5f7f9b779b17422d0df92223018b32b4d1fa46e071723d6817e2486d003becc55f00905090565b611f39610bc2565b611f6f576040517f8dfc202b00000000000000000000000000000000000000000000000000000000815260040160405180910390fd5b565b5f33905090565b5f7ff0c57e16840df040f15088dc2f81fe391c3923bec73e23a9662efc9c229c6a005f1b905090565b611fa9612084565b611fdf576040517fd7e6bcf800000000000000000000000000000000000000000000000000000000815260040160405180910390fd5b565b611fe9611fa1565b5f73ffffffffffffffffffffffffffffffffffffffff168173ffffffffffffffffffffffffffffffffffffffff1603612059575f6040517f1e4fbdf700000000000000000000000000000000000000000000000000000000815260040161205091906121b9565b60405180910390fd5b61206281611d8e565b50565b61206d611fa1565b5f612076611f0a565b90506001815f018190555050565b5f61208d611e86565b5f0160089054906101000a900460ff16905090565b5f819050919050565b6120b4816120a2565b82525050565b5f6020820190506120cd5f8301846120ab565b92915050565b5f604051905090565b5f5ffd5b5f5ffd5b6120ed816120a2565b81146120f7575f5ffd5b50565b5f81359050612108816120e4565b92915050565b5f60208284031215612123576121226120dc565b5b5f612130848285016120fa565b91505092915050565b5f8115159050919050565b61214d81612139565b82525050565b5f6040820190506121665f8301856120ab565b6121736020830184612144565b9392505050565b5f73ffffffffffffffffffffffffffffffffffffffff82169050919050565b5f6121a38261217a565b9050919050565b6121b381612199565b82525050565b5f6020820190506121cc5f8301846121aa565b92915050565b5f6020820190506121e55f830184612144565b92915050565b5f60e0820190506121fe5f83018a6121aa565b61220b60208301896121aa565b61221860408301886121aa565b61222560608301876120ab565b61223260808301866120ab565b61223f60a0830185612144565b61224c60c0830184612144565b98975050505050505050565b61226181612139565b811461226b575f5ffd5b50565b5f8135905061227c81612258565b92915050565b5f60208284031215612297576122966120dc565b5b5f6122a48482850161226e565b91505092915050565b6122b681612199565b81146122c0575f5ffd5b50565b5f813590506122d1816122ad565b92915050565b5f6122e18261217a565b9050919050565b6122f1816122d7565b81146122fb575f5ffd5b50565b5f8135905061230c816122e8565b92915050565b5f5ffd5b5f5ffd5b5f601f19601f8301169050919050565b7f4e487b71000000000000000000000000000000000000000000000000000000005f52604160045260245ffd5b6123608261231a565b810181811067ffffffffffffffff8211171561237f5761237e61232a565b5b80604052505050565b5f6123916120d3565b905061239d8282612357565b919050565b5f67ffffffffffffffff8211156123bc576123bb61232a565b5b6123c58261231a565b9050602081019050919050565b828183375f83830152505050565b5f6123f26123ed846123a2565b612388565b90508281526020810184848401111561240e5761240d612316565b5b6124198482856123d2565b509392505050565b5f82601f83011261243557612434612312565b5b81356124458482602086016123e0565b91505092915050565b5f67ffffffffffffffff8211156124685761246761232a565b5b602082029050602081019050919050565b5f5ffd5b5f61248f61248a8461244e565b612388565b905080838252602082019050602084028301858111156124b2576124b1612479565b5b835b818110156124db57806124c788826120fa565b8452602084019350506020810190506124b4565b5050509392505050565b5f82601f8301126124f9576124f8612312565b5b813561250984826020860161247d565b91505092915050565b5f5f5f5f5f5f5f5f610100898b03121561252f5761252e6120dc565b5b5f61253c8b828c016122c3565b985050602061254d8b828c016122c3565b975050604061255e8b828c016122fe565b965050606061256f8b828c016120fa565b95505060806125808b828c016120fa565b94505060a089013567ffffffffffffffff8111156125a1576125a06120e0565b5b6125ad8b828c01612421565b93505060c089013567ffffffffffffffff8111156125ce576125cd6120e0565b5b6125da8b828c016124e5565b92505060e06125eb8b828c0161226e565b9150509295985092959890939650565b5f602082840312156126105761260f6120dc565b5b5f61261d848285016122c3565b91505092915050565b61262f816122d7565b82525050565b5f6020820190506126485f830184612626565b92915050565b5f6fffffffffffffffffffffffffffffffff82169050919050565b6126728161264e565b82525050565b5f60408201905061268b5f830185612669565b6126986020830184612144565b9392505050565b5f81519050919050565b5f82825260208201905092915050565b8281835e5f83830152505050565b5f6126d18261269f565b6126db81856126a9565b93506126eb8185602086016126b9565b6126f48161231a565b840191505092915050565b5f6020820190508181035f83015261271781846126c7565b905092915050565b7f496e76616c6964206d696c6573746f6e650000000000000000000000000000005f82015250565b5f6127536011836126a9565b915061275e8261271f565b602082019050919050565b5f6020820190508181035f83015261278081612747565b9050919050565b7f4e487b71000000000000000000000000000000000000000000000000000000005f52603260045260245ffd5b7f4f6e6c79206368617269747900000000000000000000000000000000000000005f82015250565b5f6127e8600c836126a9565b91506127f3826127b4565b602082019050919050565b5f6020820190508181035f830152612815816127dc565b9050919050565b7f436f6d706c6574656400000000000000000000000000000000000000000000005f82015250565b5f6128506009836126a9565b915061285b8261281c565b602082019050919050565b5f6020820190508181035f83015261287d81612844565b9050919050565b7f416c72656164792072656c6561736564000000000000000000000000000000005f82015250565b5f6128b86010836126a9565b91506128c382612884565b602082019050919050565b5f6020820190508181035f8301526128e5816128ac565b9050919050565b7f496e73756666696369656e742062616c616e63650000000000000000000000005f82015250565b5f6129206014836126a9565b915061292b826128ec565b602082019050919050565b5f6020820190508181035f83015261294d81612914565b9050919050565b5f81905092915050565b50565b5f61296c5f83612954565b91506129778261295e565b5f82019050919050565b5f61298b82612961565b9150819050919050565b7f5472616e73666572206661696c656400000000000000000000000000000000005f82015250565b5f6129c9600f836126a9565b91506129d482612995565b602082019050919050565b5f6020820190508181035f8301526129f6816129bd565b9050919050565b5f819050919050565b5f612a20612a1b612a168461264e565b6129fd565b6120a2565b9050919050565b612a3081612a06565b82525050565b5f602082019050612a495f830184612a27565b92915050565b7f4f6e6c7920706c6174666f726d000000000000000000000000000000000000005f82015250565b5f612a83600d836126a9565b9150612a8e82612a4f565b602082019050919050565b5f6020820190508181035f830152612ab081612a77565b9050919050565b7f496e76616c696420706c6174666f726d000000000000000000000000000000005f82015250565b5f612aeb6010836126a9565b9150612af682612ab7565b602082019050919050565b5f6020820190508181035f830152612b1881612adf565b9050919050565b7f496e76616c6964206368617269747900000000000000000000000000000000005f82015250565b5f612b53600f836126a9565b9150612b5e82612b1f565b602082019050919050565b5f6020820190508181035f830152612b8081612b47565b9050919050565b7f496e76616c6964206275696c64657200000000000000000000000000000000005f82015250565b5f612bbb600f836126a9565b9150612bc682612b87565b602082019050919050565b5f6020820190508181035f830152612be881612baf565b9050919050565b7f446561646c696e65206d75737420626520696e206675747572650000000000005f82015250565b5f612c23601a836126a9565b9150612c2e82612bef565b602082019050919050565b5f6020820190508181035f830152612c5081612c17565b9050919050565b7f476f616c203e30000000000000000000000000000000000000000000000000005f82015250565b5f612c8b6007836126a9565b9150612c9682612c57565b602082019050919050565b5f6020820190508181035f830152612cb881612c7f565b9050919050565b7f4d696c6573746f6e6573207265717569726564000000000000000000000000005f82015250565b5f612cf36013836126a9565b9150612cfe82612cbf565b602082019050919050565b5f6020820190508181035f830152612d2081612ce7565b9050919050565b7f4e487b71000000000000000000000000000000000000000000000000000000005f52602260045260245ffd5b5f6002820490506001821680612d6b57607f821691505b602082108103612d7e57612d7d612d27565b5b50919050565b5f819050815f5260205f209050919050565b5f6020601f8301049050919050565b5f82821b905092915050565b5f60088302612de07fffffffffffffffffffffffffffffffffffffffffffffffffffffffffffffffff82612da5565b612dea8683612da5565b95508019841693508086168417925050509392505050565b5f612e1c612e17612e12846120a2565b6129fd565b6120a2565b9050919050565b5f819050919050565b612e3583612e02565b612e49612e4182612e23565b848454612db1565b825550505050565b5f5f905090565b612e60612e51565b612e6b818484612e2c565b505050565b5b81811015612e8e57612e835f82612e58565b600181019050612e71565b5050565b601f821115612ed357612ea481612d84565b612ead84612d96565b81016020851015612ebc578190505b612ed0612ec885612d96565b830182612e70565b50505b505050565b5f82821c905092915050565b5f612ef35f1984600802612ed8565b1980831691505092915050565b5f612f0b8383612ee4565b9150826002028217905092915050565b612f248261269f565b67ffffffffffffffff811115612f3d57612f3c61232a565b5b612f478254612d54565b612f52828285612e92565b5f60209050601f831160018114612f83575f8415612f71578287015190505b612f7b8582612f00565b865550612fe2565b601f198416612f9186612d84565b5f5b82811015612fb857848901518255600182019150602085019450602081019050612f93565b86831015612fd55784890151612fd1601f891682612ee4565b8355505b6001600288020188555050505b505050505050565b7f4d696c6573746f6e65203e3000000000000000000000000000000000000000005f82015250565b5f61301e600c836126a9565b915061302982612fea565b602082019050919050565b5f6020820190508181035f83015261304b81613012565b9050919050565b7f4e487b71000000000000000000000000000000000000000000000000000000005f52601160045260245ffd5b5f613089826120a2565b9150613094836120a2565b92508282019050808211156130ac576130ab613052565b5b92915050565b7f4d696c6573746f6e65732065786365656420676f616c000000000000000000005f82015250565b5f6130e66016836126a9565b91506130f1826130b2565b602082019050919050565b5f6020820190508181035f830152613113816130da565b9050919050565b5f819050919050565b5f67ffffffffffffffff82169050919050565b5f61315061314b6131468461311a565b6129fd565b613123565b9050919050565b61316081613136565b82525050565b5f6020820190506131795f830184613157565b92915050565b7f526566756e64732064697361626c656420286e6f20646561646c696e652900005f82015250565b5f6131b3601e836126a9565b91506131be8261317f565b602082019050919050565b5f6020820190508181035f8301526131e0816131a7565b9050919050565b7f446561646c696e65206e6f7420706173736564000000000000000000000000005f82015250565b5f61321b6013836126a9565b9150613226826131e7565b602082019050919050565b5f6020820190508181035f8301526132488161320f565b9050919050565b7f50726f6a65637420636f6d706c657465640000000000000000000000000000005f82015250565b5f6132836011836126a9565b915061328e8261324f565b602082019050919050565b5f6020820190508181035f8301526132b081613277565b9050919050565b7f476f616c206d65740000000000000000000000000000000000000000000000005f82015250565b5f6132eb6008836126a9565b91506132f6826132b7565b602082019050919050565b5f6020820190508181035f830152613318816132df565b9050919050565b7f4e6f20646f6e6174696f6e20746f20726566756e6400000000000000000000005f82015250565b5f6133536015836126a9565b915061335e8261331f565b602082019050919050565b5f6020820190508181035f83015261338081613347565b9050919050565b7f526566756e64206661696c6564000000000000000000000000000000000000005f82015250565b5f6133bb600d836126a9565b91506133c682613387565b602082019050919050565b5f6020820190508181035f8301526133e8816133af565b9050919050565b7f446561646c696e652070617373656400000000000000000000000000000000005f82015250565b5f613423600f836126a9565b915061342e826133ef565b602082019050919050565b5f6020820190508181035f83015261345081613417565b9050919050565b7f416c726561647920636f6d706c657465640000000000000000000000000000005f82015250565b5f61348b6011836126a9565b915061349682613457565b602082019050919050565b5f6020820190508181035f8301526134b88161347f565b9050919050565b7f446f6e617465203e3000000000000000000000000000000000000000000000005f82015250565b5f6134f36009836126a9565b91506134fe826134bf565b602082019050919050565b5f6020820190508181035f830152613520816134e7565b9050919050565b7f4578636565647320676f616c00000000000000000000000000000000000000005f82015250565b5f61355b600c836126a9565b915061356682613527565b602082019050919050565b5f6020820190508181035f8301526135888161354f565b905091905056fea2646970667358221220ee6904340a36b512d50e08797af17d4ef7dd2698c843700a493139f733f2cb7e64736f6c634300081c0033",
  "linkReferences": {},
  "deployedLinkReferences": {},
  "immutableReferences": {},
  "inputSourceName": "project/contracts/Project.sol",
  "buildInfoId": "solc-0_8_28-2e197eab7f31ebba8104a0261707c6a3c3a9c74b"
}