{
  "_format": "hh3-artifact-1",
  "contractName": "ProjectFactory",
  "sourceName": "contracts/ProjectFactory.sol",
  "abi": [
    {
      "inputs": [
        {
          "internalType": "address",
          "name": "_implementation",
          "type": "address"
        }
      ],
      "stateMutability": "nonpayable",
      "type": "constructor"
    },
    {
      "inputs": [],
      "name": "FailedDeployment",
      "type": "error"
    },
    {
      "inputs": [
        {
          "internalType": "uint256",
          "name": "balance",
          "type": "uint256"
        },
        {
          "internalType": "uint256",
          "name": "needed",
          "type": "uint256"
        }
      ],
      "name": "InsufficientBalance",
      "type": "error"
    },
    {
      "inputs": [
        {
          "internalType": "address",
          "name": "owner",
          "type": "address"
        }
      ],
      "name": "OwnableInvalidOwner",
      "type": "error"
    },
    {
      "inputs": [
        {
          "internalType": "address",
          "name": "account",
          "type": "address"
        }
      ],
      "name": "OwnableUnauthorizedAccount",
      "type": "error"
    },
    {
      "anonymous": false,
      "inputs": [
        {
          "indexed": true,
          "internalType": "address",
          "name": "previousOwner",
          "type": "address"
        },
        {
          "indexed": true,
          "internalType": "address",
          "name": "newOwner",
          "type": "address"
        }
      ],
      "name": "OwnershipTransferred",
      "type": "event"
    },
    {
      "anonymous": false,
      "inputs": [
        {
          "indexed": true,
          "internalType": "address",
          "name": "projectAddress",
          "type": "address"
        },
        {
          "indexed": true,
          "internalType": "address",
          "name": "platform",
          "type": "address"
        },
        {
          "indexed": true,
          "internalType": "address",
          "name": "charity",
          "type": "address"
        },
        {
          "indexed": false,
          "internalType": "address",
          "name": "builder",
          "type": "address"
        },
        {
          "indexed": false,
          "internalType": "uint256",
          "name": "goal",
          "type": "uint256"
        },
        {
          "indexed": false,
          "internalType": "uint256",
          "name": "deadline",
          "type": "uint256"
        },
        {
          "indexed": false,
          "internalType": "string",
          "name": "metaCid",
          "type": "string"
        },
        {
          "indexed": false,
          "internalType": "bool",
          "name": "deadlineEnabled",
          "type": "bool"
        }
      ],
      "name": "ProjectCreated",
      "type": "event"
    },
    {
      "inputs": [
        {
          "internalType": "uint256",
          "name": "",
          "type": "uint256"
        }
      ],
      "name": "allProjects",
      "outputs": [
        {
          "internalType": "address",
          "name": "",
          "type": "address"
        }
      ],
      "stateMutability": "view",
      "type": "function"
    },
    {
      "inputs": [
        {
          "internalType": "address",
          "name": "charity",
          "type": "address"
        },
        {
          "internalType": "address payable",
          "name": "builder",
          "type": "address"
        },
        {
          "internalType": "uint256",
          "name": "goal",
          "type": "uint256"
        },
        {
          "internalType": "uint256",
          "name": "deadline",
          "type": "uint256"
        },
        {
          "internalType": "string",
          "name": "metaCid",
          "type": "string"
        },
        {
          "internalType": "uint256[]",
          "name": "milestoneAmounts",
          "type": "uint256[]"
        },
        {
          "internalType": "bool",
          "name": "deadlineEnabled",
          "type": "bool"
        }
      ],
      "name": "createProject",
      "outputs": [
        {
          "internalType": "address",
          "name": "",
          "type": "address"
        }
      ],
      "stateMutability": "nonpayable",
      "type": "function"
    },
    {
      "inputs": [],
      "name": "getAllProjects",
      "outputs": [
        {
          "internalType": "address[]",
          "name": "",
          "type": "address[]"
        }
      ],
      "stateMutability": "view",
      "type": "function"
    },
    {
      "inputs": [],
      "name": "getProjectsCount",
      "outputs": [
        {
          "internalType": "uint256",
          "name": "",
          "type": "uint256"
        }
      ],
      "stateMutability": "view",
      "type": "function"
    },
    {
      "inputs": [],
      "name": "implementation",
      "outputs": [
        {
          "internalType": "address",
          "name": "",
          "type": "address"
        }
      ],
      "stateMutability": "view",
      "type": "function"
    },
    {
      "inputs": [],
      "name": "owner",
      "outputs": [
        {
          "internalType": "address",
          "name": "",
          "type": "address"
        }
      ],
      "stateMutability": "view",
      "type": "function"
    },
    {
      "inputs": [],
      "name": "renounceOwnership",
      "outputs": [],
      "stateMutability": "nonpayable",
      "type": "function"
    },
    {
      "inputs": [
        {
          "internalType": "address",
          "name": "newOwner",
          "type": "address"
        }
      ],
      "name": "transferOwnership",
      "outputs": [],
      "stateMutability": "nonpayable",
      "type": "function"
    },
    {
      "inputs": [
        {
          "internalType": "address",
          "name": "_newImplementation",
          "type": "address"
        }
      ],
      "name": "upgradeImplementation",
      "outputs": [],
      "stateMutability": "nonpayable",
      "type": "function"
    }
  ],
  "bytecode": "0x608060405234801561000f575f5ffd5b506040516117b53803806117b583398181016040528101906100319190610285565b335f73ffffffffffffffffffffffffffffffffffffffff168173ffffffffffffffffffffffffffffffffffffffff16036100a2575f6040517f1e4fbdf700000000000000000000000000000000000000000000000000000000815260040161009991906102bf565b60405180910390fd5b6100b18161016660201b60201c565b505f73ffffffffffffffffffffffffffffffffffffffff168173ffffffffffffffffffffffffffffffffffffffff1603610120576040517f08c379a000000000000000000000000000000000000000000000000000000000815260040161011790610332565b60405180910390fd5b8060015f6101000a81548173ffffffffffffffffffffffffffffffffffffffff021916908373ffffffffffffffffffffffffffffffffffffffff16021790555050610350565b5f5f5f9054906101000a900473ffffffffffffffffffffffffffffffffffffffff169050815f5f6101000a81548173ffffffffffffffffffffffffffffffffffffffff021916908373ffffffffffffffffffffffffffffffffffffffff1602179055508173ffffffffffffffffffffffffffffffffffffffff168173ffffffffffffffffffffffffffffffffffffffff167f8be0079c531659141344cd1fd0a4f28419497f9722a3daafe3b4186f6b6457e060405160405180910390a35050565b5f5ffd5b5f73ffffffffffffffffffffffffffffffffffffffff82169050919050565b5f6102548261022b565b9050919050565b6102648161024a565b811461026e575f5ffd5b50565b5f8151905061027f8161025b565b92915050565b5f6020828403121561029a57610299610227565b5b5f6102a784828501610271565b91505092915050565b6102b98161024a565b82525050565b5f6020820190506102d25f8301846102b0565b92915050565b5f82825260208201905092915050565b7f496e76616c696420696d706c656d656e746174696f6e000000000000000000005f82015250565b5f61031c6016836102d8565b9150610327826102e8565b602082019050919050565b5f6020820190508181035f83015261034981610310565b9050919050565b6114588061035d5f395ff3fe608060405234801561000f575f5ffd5b5060043610610091575f3560e01c806383f94db71161006457806383f94db71461010b5780638da5cb5b14610127578063c6bf7fcc14610145578063e4a8f18b14610175578063f2fde38b1461019357610091565b806353b3194c146100955780635c60da1b146100c5578063715018a6146100e357806380d03829146100ed575b5f5ffd5b6100af60048036038101906100aa91906109fd565b6101af565b6040516100bc9190610a67565b60405180910390f35b6100cd6101ea565b6040516100da9190610a67565b60405180910390f35b6100eb61020f565b005b6100f5610222565b6040516101029190610b37565b60405180910390f35b61012560048036038101906101209190610b81565b6102ad565b005b61012f610366565b60405161013c9190610a67565b60405180910390f35b61015f600480360381019061015a9190610e1c565b61038d565b60405161016c9190610a67565b60405180910390f35b61017d6106d3565b60405161018a9190610f00565b60405180910390f35b6101ad60048036038101906101a89190610b81565b6106df565b005b600281815481106101be575f80fd5b905f5260205f20015f915054906101000a900473ffffffffffffffffffffffffffffffffffffffff1681565b60015f9054906101000a900473ffffffffffffffffffffffffffffffffffffffff1681565b610217610763565b6102205f6107ea565b565b606060028054806020026020016040519081016040528092919081815260200182805480156102a357602002820191905f5260205f20905b815f9054906101000a900473ffffffffffffffffffffffffffffffffffffffff1673ffffffffffffffffffffffffffffffffffffffff168152602001906001019080831161025a575b5050505050905090565b6102b5610763565b5f73ffffffffffffffffffffffffffffffffffffffff168173ffffffffffffffffffffffffffffffffffffffff1603610323576040517f08c379a000000000000000000000000000000000000000000000000000000000815260040161031a90610f73565b60405180910390fd5b8060015f6101000a81548173ffffffffffffffffffffffffffffffffffffffff021916908373ffffffffffffffffffffffffffffffffffffffff16021790555050565b5f5f5f9054906101000a900473ffffffffffffffffffffffffffffffffffffffff16905090565b5f5f73ffffffffffffffffffffffffffffffffffffffff168873ffffffffffffffffffffffffffffffffffffffff16036103fc576040517f08c379a00000000000000000000000000000000000000000000000000000000081526004016103f390610fdb565b60405180910390fd5b5f73ffffffffffffffffffffffffffffffffffffffff168773ffffffffffffffffffffffffffffffffffffffff160361046a576040517f08c379a000000000000000000000000000000000000000000000000000000000815260040161046190611043565b60405180910390fd5b5f86116104ac576040517f08c379a00000000000000000000000000000000000000000000000000000000081526004016104a3906110ab565b60405180910390fd5b4285116104ee576040517f08c379a00000000000000000000000000000000000000000000000000000000081526004016104e590611113565b60405180910390fd5b5f845111610531576040517f08c379a00000000000000000000000000000000000000000000000000000000081526004016105289061117b565b60405180910390fd5b5f61055c60015f9054906101000a900473ffffffffffffffffffffffffffffffffffffffff166108ab565b90508073ffffffffffffffffffffffffffffffffffffffff1663b33c0905610582610366565b8b8b8b8b8b8b8b6040518963ffffffff1660e01b81526004016105ac9897969594939291906112be565b5f604051808303815f87803b1580156105c3575f5ffd5b505af11580156105d5573d5f5f3e3d5ffd5b50505050600281908060018154018082558091505060019003905f5260205f20015f9091909190916101000a81548173ffffffffffffffffffffffffffffffffffffffff021916908373ffffffffffffffffffffffffffffffffffffffff1602179055508873ffffffffffffffffffffffffffffffffffffffff16610658610366565b73ffffffffffffffffffffffffffffffffffffffff168273ffffffffffffffffffffffffffffffffffffffff167f71ca2abecb980c45eee73b4f98159d6c34b74d2deb04b02e490f04e6e83bc6778b8b8b8b8a6040516106bc9594939291906113a3565b60405180910390a480915050979650505050505050565b5f600280549050905090565b6106e7610763565b5f73ffffffffffffffffffffffffffffffffffffffff168173ffffffffffffffffffffffffffffffffffffffff1603610757575f6040517f1e4fbdf700000000000000000000000000000000000000000000000000000000815260040161074e9190610a67565b60405180910390fd5b610760816107ea565b50565b61076b6108bd565b73ffffffffffffffffffffffffffffffffffffffff16610789610366565b73ffffffffffffffffffffffffffffffffffffffff16146107e8576107ac6108bd565b6040517f118cdaa70000000000000000000000000000000000000000000000000000000081526004016107df9190610a67565b60405180910390fd5b565b5f5f5f9054906101000a900473ffffffffffffffffffffffffffffffffffffffff169050815f5f6101000a81548173ffffffffffffffffffffffffffffffffffffffff021916908373ffffffffffffffffffffffffffffffffffffffff1602179055508173ffffffffffffffffffffffffffffffffffffffff168173ffffffffffffffffffffffffffffffffffffffff167f8be0079c531659141344cd1fd0a4f28419497f9722a3daafe3b4186f6b6457e060405160405180910390a35050565b5f6108b6825f6108c4565b9050919050565b5f33905090565b5f8147101561090c5747826040517fcf4791810000000000000000000000000000000000000000000000000000000081526004016109039291906113fb565b60405180910390fd5b763d602d80600a3d3981f3363d3d373d3d3d363d730000008360601b60e81c175f526e5af43d82803e903d91602b57fd5bf38360781b176020526037600983f090505f73ffffffffffffffffffffffffffffffffffffffff168173ffffffffffffffffffffffffffffffffffffffff16036109b3576040517fb06ebf3d00000000000000000000000000000000000000000000000000000000815260040160405180910390fd5b92915050565b5f604051905090565b5f5ffd5b5f5ffd5b5f819050919050565b6109dc816109ca565b81146109e6575f5ffd5b50565b5f813590506109f7816109d3565b92915050565b5f60208284031215610a1257610a116109c2565b5b5f610a1f848285016109e9565b91505092915050565b5f73ffffffffffffffffffffffffffffffffffffffff82169050919050565b5f610a5182610a28565b9050919050565b610a6181610a47565b82525050565b5f602082019050610a7a5f830184610a58565b92915050565b5f81519050919050565b5f82825260208201905092915050565b5f819050602082019050919050565b610ab281610a47565b82525050565b5f610ac38383610aa9565b60208301905092915050565b5f602082019050919050565b5f610ae582610a80565b610aef8185610a8a565b9350610afa83610a9a565b805f5b83811015610b2a578151610b118882610ab8565b9750610b1c83610acf565b925050600181019050610afd565b5085935050505092915050565b5f6020820190508181035f830152610b4f8184610adb565b905092915050565b610b6081610a47565b8114610b6a575f5ffd5b50565b5f81359050610b7b81610b57565b92915050565b5f60208284031215610b9657610b956109c2565b5b5f610ba384828501610b6d565b91505092915050565b5f610bb682610a28565b9050919050565b610bc681610bac565b8114610bd0575f5ffd5b50565b5f81359050610be181610bbd565b92915050565b5f5ffd5b5f5ffd5b5f601f19601f8301169050919050565b7f4e487b71000000000000000000000000000000000000000000000000000000005f52604160045260245ffd5b610c3582610bef565b810181811067ffffffffffffffff82111715610c5457610c53610bff565b5b80604052505050565b5f610c666109b9565b9050610c728282610c2c565b919050565b5f67ffffffffffffffff821115610c9157610c90610bff565b5b610c9a82610bef565b9050602081019050919050565b828183375f83830152505050565b5f610cc7610cc284610c77565b610c5d565b905082815260208101848484011115610ce357610ce2610beb565b5b610cee848285610ca7565b509392505050565b5f82601f830112610d0a57610d09610be7565b5b8135610d1a848260208601610cb5565b91505092915050565b5f67ffffffffffffffff821115610d3d57610d3c610bff565b5b602082029050602081019050919050565b5f5ffd5b5f610d64610d5f84610d23565b610c5d565b90508083825260208201905060208402830185811115610d8757610d86610d4e565b5b835b81811015610db05780610d9c88826109e9565b845260208401935050602081019050610d89565b5050509392505050565b5f82601f830112610dce57610dcd610be7565b5b8135610dde848260208601610d52565b91505092915050565b5f8115159050919050565b610dfb81610de7565b8114610e05575f5ffd5b50565b5f81359050610e1681610df2565b92915050565b5f5f5f5f5f5f5f60e0888a031215610e3757610e366109c2565b5b5f610e448a828b01610b6d565b9750506020610e558a828b01610bd3565b9650506040610e668a828b016109e9565b9550506060610e778a828b016109e9565b945050608088013567ffffffffffffffff811115610e9857610e976109c6565b5b610ea48a828b01610cf6565b93505060a088013567ffffffffffffffff811115610ec557610ec46109c6565b5b610ed18a828b01610dba565b92505060c0610ee28a828b01610e08565b91505092959891949750929550565b610efa816109ca565b82525050565b5f602082019050610f135f830184610ef1565b92915050565b5f82825260208201905092915050565b7f496e76616c696420696d706c656d656e746174696f6e000000000000000000005f82015250565b5f610f5d601683610f19565b9150610f6882610f29565b602082019050919050565b5f6020820190508181035f830152610f8a81610f51565b9050919050565b7f496e76616c6964206368617269747900000000000000000000000000000000005f82015250565b5f610fc5600f83610f19565b9150610fd082610f91565b602082019050919050565b5f6020820190508181035f830152610ff281610fb9565b9050919050565b7f496e76616c6964206275696c64657200000000000000000000000000000000005f82015250565b5f61102d600f83610f19565b915061103882610ff9565b602082019050919050565b5f6020820190508181035f83015261105a81611021565b9050919050565b7f476f616c206d757374206265203e2030000000000000000000000000000000005f82015250565b5f611095601083610f19565b91506110a082611061565b602082019050919050565b5f6020820190508181035f8301526110c281611089565b9050919050565b7f446561646c696e65206d75737420626520696e206675747572650000000000005f82015250565b5f6110fd601a83610f19565b9150611108826110c9565b602082019050919050565b5f6020820190508181035f83015261112a816110f1565b9050919050565b7f4d657461646174612072657175697265640000000000000000000000000000005f82015250565b5f611165601183610f19565b915061117082611131565b602082019050919050565b5f6020820190508181035f83015261119281611159565b9050919050565b6111a281610bac565b82525050565b5f81519050919050565b8281835e5f83830152505050565b5f6111ca826111a8565b6111d48185610f19565b93506111e48185602086016111b2565b6111ed81610bef565b840191505092915050565b5f81519050919050565b5f82825260208201905092915050565b5f819050602082019050919050565b61122a816109ca565b82525050565b5f61123b8383611221565b60208301905092915050565b5f602082019050919050565b5f61125d826111f8565b6112678185611202565b935061127283611212565b805f5b838110156112a25781516112898882611230565b975061129483611247565b925050600181019050611275565b5085935050505092915050565b6112b881610de7565b82525050565b5f610100820190506112d25f83018b610a58565b6112df602083018a610a58565b6112ec6040830189611199565b6112f96060830188610ef1565b6113066080830187610ef1565b81810360a083015261131881866111c0565b905081810360c083015261132c8185611253565b905061133b60e08301846112af565b9998505050505050505050565b5f819050919050565b5f61136b61136661136184610a28565b611348565b610a28565b9050919050565b5f61137c82611351565b9050919050565b5f61138d82611372565b9050919050565b61139d81611383565b82525050565b5f60a0820190506113b65f830188611394565b6113c36020830187610ef1565b6113d06040830186610ef1565b81810360608301526113e281856111c0565b90506113f160808301846112af565b9695505050505050565b5f60408201905061140e5f830185610ef1565b61141b6020830184610ef1565b939250505056fea264697066735822122068d11f6075af2c2f45ed679db5f761c3e0de6fa09c71740fc3ca8d76d416ec5364736f6c634300081c0033",
  "linkReferences": {},
  "deployedLinkReferences": {},
  "immutableReferences": {},
  "inputSourceName": "project/contracts/ProjectFactory.sol",
  "buildInfoId": "solc-0_8_28-2e197eab7f31ebba8104a0261707c6a3c3a9c74b"
}